{
  "contractName": "MetaSaltMarket",
  "abi": [
    {
      "anonymous": false,
      "inputs": [
        {
          "indexed": false,
          "internalType": "bytes32",
          "name": "hash",
          "type": "bytes32"
        },
        {
          "indexed": false,
          "internalType": "address",
          "name": "maker",
          "type": "address"
        },
        {
          "components": [
            {
              "internalType": "bytes4",
              "name": "assetClass",
              "type": "bytes4"
            },
            {
              "internalType": "bytes",
              "name": "data",
              "type": "bytes"
            }
          ],
          "indexed": false,
          "internalType": "struct LibAsset.AssetType",
          "name": "makeAssetType",
          "type": "tuple"
        },
        {
          "components": [
            {
              "internalType": "bytes4",
              "name": "assetClass",
              "type": "bytes4"
            },
            {
              "internalType": "bytes",
              "name": "data",
              "type": "bytes"
            }
          ],
          "indexed": false,
          "internalType": "struct LibAsset.AssetType",
          "name": "takeAssetType",
          "type": "tuple"
        }
      ],
      "name": "Cancel",
      "type": "event"
    },
    {
      "anonymous": false,
      "inputs": [
        {
          "indexed": false,
          "internalType": "bytes32",
          "name": "leftHash",
          "type": "bytes32"
        },
        {
          "indexed": false,
          "internalType": "bytes32",
          "name": "rightHash",
          "type": "bytes32"
        },
        {
          "indexed": false,
          "internalType": "address",
          "name": "leftMaker",
          "type": "address"
        },
        {
          "indexed": false,
          "internalType": "address",
          "name": "rightMaker",
          "type": "address"
        },
        {
          "components": [
            {
              "internalType": "bytes4",
              "name": "assetClass",
              "type": "bytes4"
            },
            {
              "internalType": "bytes",
              "name": "data",
              "type": "bytes"
            }
          ],
          "indexed": false,
          "internalType": "struct LibAsset.AssetType",
          "name": "leftAsset",
          "type": "tuple"
        },
        {
          "components": [
            {
              "internalType": "bytes4",
              "name": "assetClass",
              "type": "bytes4"
            },
            {
              "internalType": "bytes",
              "name": "data",
              "type": "bytes"
            }
          ],
          "indexed": false,
          "internalType": "struct LibAsset.AssetType",
          "name": "rightAsset",
          "type": "tuple"
        }
      ],
      "name": "OrderCompleted",
      "type": "event"
    },
    {
      "anonymous": false,
      "inputs": [
        {
          "indexed": true,
          "internalType": "address",
          "name": "previousOwner",
          "type": "address"
        },
        {
          "indexed": true,
          "internalType": "address",
          "name": "newOwner",
          "type": "address"
        }
      ],
      "name": "OwnershipTransferred",
      "type": "event"
    },
    {
      "anonymous": false,
      "inputs": [
        {
          "indexed": false,
          "internalType": "address",
          "name": "account",
          "type": "address"
        }
      ],
      "name": "Paused",
      "type": "event"
    },
    {
      "anonymous": false,
      "inputs": [
        {
          "indexed": false,
          "internalType": "address",
          "name": "account",
          "type": "address"
        }
      ],
      "name": "Unpaused",
      "type": "event"
    },
    {
      "inputs": [
        {
          "components": [
            {
              "internalType": "address",
              "name": "maker",
              "type": "address"
            },
            {
              "components": [
                {
                  "components": [
                    {
                      "internalType": "bytes4",
                      "name": "assetClass",
                      "type": "bytes4"
                    },
                    {
                      "internalType": "bytes",
                      "name": "data",
                      "type": "bytes"
                    }
                  ],
                  "internalType": "struct LibAsset.AssetType",
                  "name": "assetType",
                  "type": "tuple"
                },
                {
                  "internalType": "uint256",
                  "name": "value",
                  "type": "uint256"
                }
              ],
              "internalType": "struct LibAsset.Asset",
              "name": "makeAsset",
              "type": "tuple"
            },
            {
              "internalType": "address",
              "name": "taker",
              "type": "address"
            },
            {
              "components": [
                {
                  "components": [
                    {
                      "internalType": "bytes4",
                      "name": "assetClass",
                      "type": "bytes4"
                    },
                    {
                      "internalType": "bytes",
                      "name": "data",
                      "type": "bytes"
                    }
                  ],
                  "internalType": "struct LibAsset.AssetType",
                  "name": "assetType",
                  "type": "tuple"
                },
                {
                  "internalType": "uint256",
                  "name": "value",
                  "type": "uint256"
                }
              ],
              "internalType": "struct LibAsset.Asset",
              "name": "takeAsset",
              "type": "tuple"
            },
            {
              "internalType": "bytes",
              "name": "data",
              "type": "bytes"
            }
          ],
          "internalType": "struct LibOrder.Order",
          "name": "order",
          "type": "tuple"
        }
      ],
      "name": "cancel",
      "outputs": [],
      "stateMutability": "nonpayable",
      "type": "function"
    },
    {
      "inputs": [],
      "name": "defaultFeeReceiver",
      "outputs": [
        {
          "internalType": "address",
          "name": "",
          "type": "address"
        }
      ],
      "stateMutability": "view",
      "type": "function",
      "constant": true
    },
    {
      "inputs": [
        {
          "components": [
            {
              "internalType": "bytes4",
              "name": "assetClass",
              "type": "bytes4"
            },
            {
              "internalType": "bytes",
              "name": "data",
              "type": "bytes"
            }
          ],
          "internalType": "struct LibAsset.AssetType",
          "name": "leftAssetType",
          "type": "tuple"
        },
        {
          "components": [
            {
              "internalType": "bytes4",
              "name": "assetClass",
              "type": "bytes4"
            },
            {
              "internalType": "bytes",
              "name": "data",
              "type": "bytes"
            }
          ],
          "internalType": "struct LibAsset.AssetType",
          "name": "rightAssetType",
          "type": "tuple"
        }
      ],
      "name": "matchAssets",
      "outputs": [
        {
          "components": [
            {
              "internalType": "bytes4",
              "name": "assetClass",
              "type": "bytes4"
            },
            {
              "internalType": "bytes",
              "name": "data",
              "type": "bytes"
            }
          ],
          "internalType": "struct LibAsset.AssetType",
          "name": "",
          "type": "tuple"
        }
      ],
      "stateMutability": "pure",
      "type": "function",
      "constant": true
    },
    {
      "inputs": [
        {
          "components": [
            {
              "internalType": "address",
              "name": "maker",
              "type": "address"
            },
            {
              "components": [
                {
                  "components": [
                    {
                      "internalType": "bytes4",
                      "name": "assetClass",
                      "type": "bytes4"
                    },
                    {
                      "internalType": "bytes",
                      "name": "data",
                      "type": "bytes"
                    }
                  ],
                  "internalType": "struct LibAsset.AssetType",
                  "name": "assetType",
                  "type": "tuple"
                },
                {
                  "internalType": "uint256",
                  "name": "value",
                  "type": "uint256"
                }
              ],
              "internalType": "struct LibAsset.Asset",
              "name": "makeAsset",
              "type": "tuple"
            },
            {
              "internalType": "address",
              "name": "taker",
              "type": "address"
            },
            {
              "components": [
                {
                  "components": [
                    {
                      "internalType": "bytes4",
                      "name": "assetClass",
                      "type": "bytes4"
                    },
                    {
                      "internalType": "bytes",
                      "name": "data",
                      "type": "bytes"
                    }
                  ],
                  "internalType": "struct LibAsset.AssetType",
                  "name": "assetType",
                  "type": "tuple"
                },
                {
                  "internalType": "uint256",
                  "name": "value",
                  "type": "uint256"
                }
              ],
              "internalType": "struct LibAsset.Asset",
              "name": "takeAsset",
              "type": "tuple"
            },
            {
              "internalType": "bytes",
              "name": "data",
              "type": "bytes"
            }
          ],
          "internalType": "struct LibOrder.Order",
          "name": "orderLeft",
          "type": "tuple"
        },
        {
          "internalType": "bytes",
          "name": "signatureLeft",
          "type": "bytes"
        },
        {
          "components": [
            {
              "internalType": "address",
              "name": "maker",
              "type": "address"
            },
            {
              "components": [
                {
                  "components": [
                    {
                      "internalType": "bytes4",
                      "name": "assetClass",
                      "type": "bytes4"
                    },
                    {
                      "internalType": "bytes",
                      "name": "data",
                      "type": "bytes"
                    }
                  ],
                  "internalType": "struct LibAsset.AssetType",
                  "name": "assetType",
                  "type": "tuple"
                },
                {
                  "internalType": "uint256",
                  "name": "value",
                  "type": "uint256"
                }
              ],
              "internalType": "struct LibAsset.Asset",
              "name": "makeAsset",
              "type": "tuple"
            },
            {
              "internalType": "address",
              "name": "taker",
              "type": "address"
            },
            {
              "components": [
                {
                  "components": [
                    {
                      "internalType": "bytes4",
                      "name": "assetClass",
                      "type": "bytes4"
                    },
                    {
                      "internalType": "bytes",
                      "name": "data",
                      "type": "bytes"
                    }
                  ],
                  "internalType": "struct LibAsset.AssetType",
                  "name": "assetType",
                  "type": "tuple"
                },
                {
                  "internalType": "uint256",
                  "name": "value",
                  "type": "uint256"
                }
              ],
              "internalType": "struct LibAsset.Asset",
              "name": "takeAsset",
              "type": "tuple"
            },
            {
              "internalType": "bytes",
              "name": "data",
              "type": "bytes"
            }
          ],
          "internalType": "struct LibOrder.Order",
          "name": "orderRight",
          "type": "tuple"
        },
        {
          "internalType": "bytes",
          "name": "signatureRight",
          "type": "bytes"
        }
      ],
      "name": "matchOrders",
      "outputs": [],
      "stateMutability": "payable",
      "type": "function",
      "payable": true
    },
    {
      "inputs": [
        {
          "internalType": "bytes32",
          "name": "",
          "type": "bytes32"
        }
      ],
      "name": "orderState",
      "outputs": [
        {
          "internalType": "uint256",
          "name": "",
          "type": "uint256"
        }
      ],
      "stateMutability": "view",
      "type": "function",
      "constant": true
    },
    {
      "inputs": [],
      "name": "owner",
      "outputs": [
        {
          "internalType": "address",
          "name": "",
          "type": "address"
        }
      ],
      "stateMutability": "view",
      "type": "function",
      "constant": true
    },
    {
      "inputs": [],
      "name": "paused",
      "outputs": [
        {
          "internalType": "bool",
          "name": "",
          "type": "bool"
        }
      ],
      "stateMutability": "view",
      "type": "function",
      "constant": true
    },
    {
      "inputs": [],
      "name": "protocolFee",
      "outputs": [
        {
          "internalType": "uint256",
          "name": "",
          "type": "uint256"
        }
      ],
      "stateMutability": "view",
      "type": "function",
      "constant": true
    },
    {
      "inputs": [],
      "name": "renounceOwnership",
      "outputs": [],
      "stateMutability": "nonpayable",
      "type": "function"
    },
    {
      "inputs": [
        {
          "internalType": "address payable",
          "name": "newDefaultFeeReceiver",
          "type": "address"
        }
      ],
      "name": "setDefaultFeeReceiver",
      "outputs": [],
      "stateMutability": "nonpayable",
      "type": "function"
    },
    {
      "inputs": [
        {
          "internalType": "uint256",
          "name": "newProtocolFee",
          "type": "uint256"
        }
      ],
      "name": "setProtocolFee",
      "outputs": [],
      "stateMutability": "nonpayable",
      "type": "function"
    },
    {
      "inputs": [
        {
          "internalType": "address",
          "name": "transferERC721Proxy",
          "type": "address"
        },
        {
          "internalType": "address",
          "name": "transferERC1155Proxy",
          "type": "address"
        }
      ],
      "name": "setTransferProxy",
      "outputs": [],
      "stateMutability": "nonpayable",
      "type": "function"
    },
    {
      "inputs": [
        {
          "internalType": "address",
          "name": "newOwner",
          "type": "address"
        }
      ],
      "name": "transferOwnership",
      "outputs": [],
      "stateMutability": "nonpayable",
      "type": "function"
    },
    {
      "inputs": [
        {
          "internalType": "uint256",
          "name": "newProtocolFee",
          "type": "uint256"
        },
        {
          "internalType": "address",
          "name": "newDefaultFeeReceiver",
          "type": "address"
        },
        {
          "internalType": "address",
          "name": "transferERC721Proxy",
          "type": "address"
        },
        {
          "internalType": "address",
          "name": "transferERC1155Proxy",
          "type": "address"
        }
      ],
      "name": "__MetaSaltMarket_init",
      "outputs": [],
      "stateMutability": "nonpayable",
      "type": "function"
    }
  ],
  "bytecode": "0x608060405234801561001057600080fd5b50612afa806100206000396000f3fe6080604052600436106100dd5760003560e01c8063aab14d041161007f578063eff55e7211610059578063eff55e721461022a578063f2fde38b1461024a578063f447638e1461026a578063fa43e5301461028a576100dd565b8063aab14d04146101c8578063b0e21e8a146101f5578063d56afca61461020a576100dd565b80636d3f7cb0116100bb5780636d3f7cb014610151578063715018a61461017e578063787dce3d146101935780638da5cb5b146101b3576100dd565b80631cdfe3d8146100e25780633abf6fd4146101045780635c975abb1461012f575b600080fd5b3480156100ee57600080fd5b506101026100fd3660046120b3565b61029d565b005b34801561011057600080fd5b50610119610322565b6040516101269190612519565b60405180910390f35b34801561013b57600080fd5b50610144610332565b6040516101269190612589565b34801561015d57600080fd5b5061017161016c366004612312565b61033b565b604051610126919061282c565b34801561018a57600080fd5b50610102610470565b34801561019f57600080fd5b506101026101ae3660046122fa565b61051c565b3480156101bf57600080fd5b50610119610584565b3480156101d457600080fd5b506101e86101e33660046122fa565b610593565b604051610126919061295b565b34801561020157600080fd5b506101e86105a6565b34801561021657600080fd5b506101026102253660046122c2565b6105ad565b34801561023657600080fd5b50610102610245366004612373565b61068c565b34801561025657600080fd5b506101026102653660046120b3565b61073d565b34801561027657600080fd5b50610102610285366004612466565b610840565b6101026102983660046123a6565b61090a565b6102a5610af2565b6001600160a01b03166102b6610584565b6001600160a01b0316146102ff576040805162461bcd60e51b81526020600482018190526024820152600080516020612aa5833981519152604482015290519081900360640190fd5b61013080546001600160a01b0319166001600160a01b0392909216919091179055565b610130546001600160a01b031681565b60335460ff1690565b610343611e4b565b81516001600160e01b0319166339d690a360e11b1480610374575081516001600160e01b03191663d8f960c160e01b145b80610390575081516001600160e01b03191663025ceed960e61b145b806103ab575081516001600160e01b03191662737ea960e61b145b156104465760008084602001518060200190518101906103cb9190612295565b9150915060008085602001518060200190518101906103ea9190612295565b91509150816001600160a01b0316846001600160a01b031614801561040e57508083145b156104415750506040805180820190915284516001600160e01b031916815260208086015190820152925061046a915050565b505050505b50604080518082018252600080825282516020818101909452908152918101919091525b92915050565b610478610af2565b6001600160a01b0316610489610584565b6001600160a01b0316146104d2576040805162461bcd60e51b81526020600482018190526024820152600080516020612aa5833981519152604482015290519081900360640190fd5b60fd546040516000916001600160a01b0316907f8be0079c531659141344cd1fd0a4f28419497f9722a3daafe3b4186f6b6457e0908390a360fd80546001600160a01b0319169055565b610524610af2565b6001600160a01b0316610535610584565b6001600160a01b03161461057e576040805162461bcd60e51b81526020600482018190526024820152600080516020612aa5833981519152604482015290519081900360640190fd5b61012f55565b60fd546001600160a01b031690565b6101606020526000908152604090205481565b61012f5481565b6105b5610af2565b6001600160a01b03166105c6610584565b6001600160a01b03161461060f576040805162461bcd60e51b81526020600482018190526024820152600080516020612aa5833981519152604482015290519081900360640190fd5b6101316020527ffd23a7b9b5314a90813df2b64e60502a6b31b56b5df0686ee0049c8f7717bf7980546001600160a01b039384166001600160a01b03199182161790915563025ceed960e61b6000527f63c5e593bf2ee54e7cba16647235067582c7e8fc237b6736e61c9d87d0578cf78054929093169116179055565b80516001600160a01b031661069f610af2565b6001600160a01b0316146106ce5760405162461bcd60e51b81526004016106c590612807565b60405180910390fd5b60006106d982610af6565b60008181526101606020908152604091829020600390558451908501515160608601515192519394507fbbdc98cb2835f4f846e6a63700d0498b4674f0e8858fd50c6379314227afa04e936107319386939291612594565b60405180910390a15050565b610745610af2565b6001600160a01b0316610756610584565b6001600160a01b03161461079f576040805162461bcd60e51b81526020600482018190526024820152600080516020612aa5833981519152604482015290519081900360640190fd5b6001600160a01b0381166107e45760405162461bcd60e51b81526004018080602001828103825260268152602001806129ec6026913960400191505060405180910390fd5b60fd546040516001600160a01b038084169216907f8be0079c531659141344cd1fd0a4f28419497f9722a3daafe3b4186f6b6457e090600090a360fd80546001600160a01b0319166001600160a01b0392909216919091179055565b600054610100900460ff16806108595750610859610bcd565b80610867575060005460ff16155b6108a25760405162461bcd60e51b815260040180806020018281038252602e815260200180612a34602e913960400191505060405180910390fd5b600054610100900460ff161580156108cd576000805460ff1961ff0019909116610100171660011790555b6108d5610bde565b6108dd610c80565b6108e5610d79565b6108f185858585610e4f565b8015610903576000805461ff00191690555b5050505050565b60026099541415610962576040805162461bcd60e51b815260206004820152601f60248201527f5265656e7472616e637947756172643a207265656e7472616e742063616c6c00604482015290519081900360640190fd5b6002609955602082015151516001600160e01b0319166355575f5d60e11b1461099d5760405162461bcd60e51b81526004016106c590612633565b606084015151516001600160e01b0319166355575f5d60e11b146109d35760405162461bcd60e51b81526004016106c590612633565b60408401516001600160a01b0316156109fe5760405162461bcd60e51b81526004016106c5906127c4565b60408201516001600160a01b031615610a295760405162461bcd60e51b81526004016106c590612689565b81516001600160a01b03163314610a525760405162461bcd60e51b81526004016106c59061265f565b610a5c8484610f87565b610a668282610f87565b610a708483610fd1565b5050610a7c848361106b565b6000610a8785610af6565b90506000610a9484610af6565b8651855160208901515160608a0151516040519495507f7980e0a70d0b16f81972215bd88d02e4599de4af5a3c8220130b37909e4da6b794610add9488948894919390926125db565b60405180910390a15050600160995550505050565b3390565b805160208201515160009190610b0b9061121f565b606084015151610b1a9061121f565b846080015160405160200180856001600160a01b0316815260200184815260200183815260200180602001828103825283818151815260200191508051906020019080838360005b83811015610b7a578181015183820152602001610b62565b50505050905090810190601f168015610ba75780820380516001836020036101000a031916815260200191505b50955050505050506040516020818303038152906040528051906020012090505b919050565b6000610bd830611289565b15905090565b600054610100900460ff1680610bf75750610bf7610bcd565b80610c05575060005460ff16155b610c405760405162461bcd60e51b815260040180806020018281038252602e815260200180612a34602e913960400191505060405180910390fd5b600054610100900460ff16158015610c6b576000805460ff1961ff0019909116610100171660011790555b8015610c7d576000805461ff00191690555b50565b600054610100900460ff1680610c995750610c99610bcd565b80610ca7575060005460ff16155b610ce25760405162461bcd60e51b815260040180806020018281038252602e815260200180612a34602e913960400191505060405180910390fd5b600054610100900460ff16158015610d0d576000805460ff1961ff0019909116610100171660011790555b6000610d17610af2565b60fd80546001600160a01b0319166001600160a01b038316908117909155604051919250906000907f8be0079c531659141344cd1fd0a4f28419497f9722a3daafe3b4186f6b6457e0908290a3508015610c7d576000805461ff001916905550565b600054610100900460ff1680610d925750610d92610bcd565b80610da0575060005460ff16155b610ddb5760405162461bcd60e51b815260040180806020018281038252602e815260200180612a34602e913960400191505060405180910390fd5b600054610100900460ff16158015610e06576000805460ff1961ff0019909116610100171660011790555b610c6b6040518060400160405280600e81526020016d13595d1854d85b1d13585c9ad95d60921b815250604051806040016040528060018152602001603160f81b81525061128f565b600054610100900460ff1680610e685750610e68610bcd565b80610e76575060005460ff16155b610eb15760405162461bcd60e51b815260040180806020018281038252602e815260200180612a34602e913960400191505060405180910390fd5b600054610100900460ff16158015610edc576000805460ff1961ff0019909116610100171660011790555b6101316020527ffd23a7b9b5314a90813df2b64e60502a6b31b56b5df0686ee0049c8f7717bf7980546001600160a01b038086166001600160a01b03199283161790925563025ceed960e61b6000527f63c5e593bf2ee54e7cba16647235067582c7e8fc237b6736e61c9d87d0578cf7805485841690831617905561012f8790556101308054928716929091169190911790558015610903576000805461ff00191690555050505050565b6000610f9283610af6565b6000818152610160602052604090205490915015610fc25760405162461bcd60e51b81526004016106c59061273b565b610fcc838361134f565b505050565b610fd9611e4b565b610fe1611e4b565b602084015151606084015151610ff7919061033b565b80519092506001600160e01b0319166110225760405162461bcd60e51b81526004016106c590612798565b606084015151602084015151611038919061033b565b80519091506001600160e01b031916156110645760405162461bcd60e51b81526004016106c590612798565b9250929050565b8151815160608401516020015161012f54600090611098906103e8906110929085906113d2565b90611432565b610130549091506110b2906001600160a01b031682611499565b60208601515151600090819081906001600160e01b0319166339d690a360e11b14156110ec576110e789602001518888611531565b6111ed565b602089015151516001600160e01b03191663d8f960c160e01b14156111565761111a896020015188886115d6565b611127896020015161164e565b9250905061113b6103e861109287856113d2565b925082156110e7576110e76001600160a01b03821684611499565b602089015151516001600160e01b03191663025ceed960e61b1415611184576110e7896020015188886117af565b602089015151516001600160e01b03191662737ea960e61b14156111ed576111b189602001518888611829565b6111be8960200151611882565b925090506111d26103e861109287856113d2565b925082156111ed576111ed6001600160a01b03821684611499565b611214611204846111fe88886118a4565b906118a4565b6001600160a01b03891690611499565b505050505050505050565b8051602091820151805190830120604080517f452a0dc408cb0d27ffc3b3caff933a5208040a53a9dbecd8d89cad2c0d40e00c818601526001600160e01b031990931683820152606080840192909252805180840390920182526080909201909152805191012090565b3b151590565b600054610100900460ff16806112a857506112a8610bcd565b806112b6575060005460ff16155b6112f15760405162461bcd60e51b815260040180806020018281038252602e815260200180612a34602e913960400191505060405180910390fd5b600054610100900460ff1615801561131c576000805460ff1961ff0019909116610100171660011790555b82516020808501919091208351918401919091206065919091556066558015610fcc576000805461ff0019169055505050565b81516001600160a01b0316611362610af2565b6001600160a01b0316146113ce57600061137b83611901565b9050600082516041141561139f5761139c83611396846119b6565b90611a02565b90505b83516001600160a01b038281169116146113cb5760405162461bcd60e51b81526004016106c5906126cd565b50505b5050565b6000826113e15750600061046a565b828202828482816113ee57fe5b041461142b5760405162461bcd60e51b8152600401808060200182810382526021815260200180612a846021913960400191505060405180910390fd5b9392505050565b6000808211611488576040805162461bcd60e51b815260206004820152601a60248201527f536166654d6174683a206469766973696f6e206279207a65726f000000000000604482015290519081900360640190fd5b81838161149157fe5b049392505050565b6040516000906001600160a01b0384169083908381818185875af1925050503d80600081146114e4576040519150601f19603f3d011682016040523d82523d6000602084013e6114e9565b606091505b5050905080610fcc576040805162461bcd60e51b815260206004820152600f60248201526e1d1c985b9cd9995c8819985a5b1959608a1b604482015290519081900360640190fd5b6000808460000151602001518060200190518101906115509190612295565b9150915084602001516001146115785760405162461bcd60e51b81526004016106c59061270f565b6040516323b872dd60e01b81526001600160a01b038316906323b872dd906115a89087908790869060040161252d565b600060405180830381600087803b1580156115c257600080fd5b505af1158015611214573d6000803e3d6000fd5b82602001516001146115fa5760405162461bcd60e51b81526004016106c59061270f565b60008084600001516020015180602001905181019061161991906121be565b6040516383adacb560e01b815291935091506001600160a01b038316906383adacb5906115a8908490889088906004016128da565b60008082602001516001146116755760405162461bcd60e51b81526004016106c59061270f565b60008084600001516020015180602001905181019061169491906121be565b8051604051636a4731c560e11b81529294509092506000916001600160a01b0385169163d48e638a916116ca919060040161295b565b602060405180830381600087803b1580156116e457600080fd5b505af11580156116f8573d6000803e3d6000fd5b505050506040513d601f19601f8201168201806040525081019061171c91906120cf565b8251604051639e4c014160e01b81529192506000916001600160a01b03861691639e4c01419161174f919060040161295b565b602060405180830381600087803b15801561176957600080fd5b505af115801561177d573d6000803e3d6000fd5b505050506040513d601f19601f820116820180604052508101906117a1919061244e565b919550909350505050915091565b6000808460000151602001518060200190518101906117ce9190612295565b9150915084602001516001146117f65760405162461bcd60e51b81526004016106c59061276b565b604051637921219560e11b81526001600160a01b0383169063f242432a906115a890879087908690600190600401612551565b60008084600001516020015180602001905181019061184891906120eb565b91509150816001600160a01b031663f8786f0f82868689602001516040518563ffffffff1660e01b81526004016115a8949392919061283f565b60008060008084600001516020015180602001905181019061169491906120eb565b6000828211156118fb576040805162461bcd60e51b815260206004820152601e60248201527f536166654d6174683a207375627472616374696f6e206f766572666c6f770000604482015290519081900360640190fd5b50900390565b60007f74841602ef8bc0259a135b606bb44132c0ebfdc1466501e566cd8098c5490c2c82600001516119368460200151611a82565b84604001516119488660600151611a82565b86608001518051906020012060405160200180878152602001866001600160a01b03168152602001858152602001846001600160a01b031681526020018381526020018281526020019650505050505050604051602081830303815290604052805190602001209050919050565b60006119c0611af2565b82604051602001808061190160f01b81525060020183815260200182815260200192505050604051602081830303815290604052805190602001209050919050565b60008151604114611a5a576040805162461bcd60e51b815260206004820152601f60248201527f45434453413a20696e76616c6964207369676e6174757265206c656e67746800604482015290519081900360640190fd5b60208201516040830151606084015160001a611a7886828585611b32565b9695505050505050565b60007fdb6f72e915676cfc289da13bc4ece054fd17b1df6d77ffc4a60510718c236b08611ab2836000015161121f565b8360200151604051602001808481526020018381526020018281526020019350505050604051602081830303815290604052805190602001209050919050565b6000611b2d7f8b73c3c69bb8fe3d512ecc4cf759cc79239f7b179b0ffacaa9a75d522b39400f611b20611d88565b611b28611d8e565b611d94565b905090565b60007f7fffffffffffffffffffffffffffffff5d576e7357a4501ddfe92f46681b20a0821115611b935760405162461bcd60e51b8152600401808060200182810382526022815260200180612a126022913960400191505060405180910390fd5b6000601e8560ff161115611c6d576004850360ff16601b1480611bbc57506004850360ff16601c145b611bf75760405162461bcd60e51b8152600401808060200182810382526022815260200180612a626022913960400191505060405180910390fd5b6001611c0287611df6565b60048703868660405160008152602001604052604051808581526020018460ff1681526020018381526020018281526020019450505050506020604051602081039080840390855afa158015611c5c573d6000803e3d6000fd5b505050602060405103519050611d24565b8460ff16601b1480611c8257508460ff16601c145b611cbd5760405162461bcd60e51b8152600401808060200182810382526022815260200180612a626022913960400191505060405180910390fd5b60018686868660405160008152602001604052604051808581526020018460ff1681526020018381526020018281526020019450505050506020604051602081039080840390855afa158015611d17573d6000803e3d6000fd5b5050506020604051035190505b6001600160a01b038116611d7f576040805162461bcd60e51b815260206004820152601860248201527f45434453413a20696e76616c6964207369676e61747572650000000000000000604482015290519081900360640190fd5b95945050505050565b60655490565b60665490565b6000838383611da1611e47565b3060405160200180868152602001858152602001848152602001838152602001826001600160a01b03168152602001955050505050506040516020818303038152906040528051906020012090509392505050565b604080517f19457468657265756d205369676e6564204d6573736167653a0a333200000000602080830191909152603c8083019490945282518083039094018452605c909101909152815191012090565b4690565b60408051808201909152600081526060602082015290565b8035610bc8816129d6565b8051610bc8816129d6565b600082601f830112611e89578081fd5b8135611e9c611e9782612988565b612964565b818152846020838601011115611eb0578283fd5b816020850160208301379081016020019190915292915050565b600082601f830112611eda578081fd5b8151611ee8611e9782612988565b818152846020838601011115611efc578283fd5b611f0d8260208301602087016129aa565b949350505050565b600060408284031215611f26578081fd5b6040516040810167ffffffffffffffff8282108183111715611f4457fe5b816040528293508435915063ffffffff60e01b82168214611f6457600080fd5b90825260208401359080821115611f7a57600080fd5b50611f8785828601611e79565b6020830152505092915050565b600060408284031215611fa5578081fd5b6040516040810167ffffffffffffffff8282108183111715611fc357fe5b816040528293508435915080821115611fdb57600080fd5b50611fe885828601611f15565b825250602083013560208201525092915050565b600060a0828403121561200d578081fd5b61201760a0612964565b905061202282611e63565b8152602082013567ffffffffffffffff8082111561203f57600080fd5b61204b85838601611f94565b602084015261205c60408501611e63565b6040840152606084013591508082111561207557600080fd5b61208185838601611f94565b6060840152608084013591508082111561209a57600080fd5b506120a784828501611e79565b60808301525092915050565b6000602082840312156120c4578081fd5b813561142b816129d6565b6000602082840312156120e0578081fd5b815161142b816129d6565b600080604083850312156120fd578081fd5b8251612108816129d6565b602084015190925067ffffffffffffffff80821115612125578283fd5b9084019060c08287031215612138578283fd5b61214260c0612964565b82518152602083015182811115612157578485fd5b61216388828601611eca565b6020830152506040830151604082015261217f60608401611e6e565b60608201526080830151608082015260a08301518281111561219f578485fd5b6121ab88828601611eca565b60a0830152508093505050509250929050565b600080604083850312156121d0578182fd5b82516121db816129d6565b602084015190925067ffffffffffffffff808211156121f8578283fd5b9084019060a0828703121561220b578283fd5b60405160a08101818110838211171561222057fe5b60405282518152602083015182811115612238578485fd5b61224488828601611eca565b60208301525061225660408401611e6e565b604082015260608301516060820152608083015182811115612276578485fd5b61228288828601611eca565b6080830152508093505050509250929050565b600080604083850312156122a7578182fd5b82516122b2816129d6565b6020939093015192949293505050565b600080604083850312156122d4578182fd5b82356122df816129d6565b915060208301356122ef816129d6565b809150509250929050565b60006020828403121561230b578081fd5b5035919050565b60008060408385031215612324578182fd5b823567ffffffffffffffff8082111561233b578384fd5b61234786838701611f15565b9350602085013591508082111561235c578283fd5b5061236985828601611f15565b9150509250929050565b600060208284031215612384578081fd5b813567ffffffffffffffff81111561239a578182fd5b611f0d84828501611ffc565b600080600080608085870312156123bb578182fd5b843567ffffffffffffffff808211156123d2578384fd5b6123de88838901611ffc565b955060208701359150808211156123f3578384fd5b6123ff88838901611e79565b94506040870135915080821115612414578384fd5b61242088838901611ffc565b93506060870135915080821115612435578283fd5b5061244287828801611e79565b91505092959194509250565b60006020828403121561245f578081fd5b5051919050565b6000806000806080858703121561247b578182fd5b84359350602085013561248d816129d6565b9250604085013561249d816129d6565b915060608501356124ad816129d6565b939692955090935050565b6001600160a01b03169052565b600081518084526124dd8160208601602086016129aa565b601f01601f19169290920160200192915050565b600063ffffffff60e01b8251168352602082015160406020850152611f0d60408501826124c5565b6001600160a01b0391909116815260200190565b6001600160a01b039384168152919092166020820152604081019190915260600190565b6001600160a01b0394851681529290931660208301526040820152606081019190915260a06080820181905260009082015260c00190565b901515815260200190565b8481526001600160a01b03841660208201526080604082018190526000906125be908301856124f1565b82810360608401526125d081856124f1565b979650505050505050565b868152602081018690526001600160a01b0385811660408301528416606082015260c060808201819052600090612614908301856124f1565b82810360a084015261262681856124f1565b9998505050505050505050565b60208082526012908201527137b7363c9022aa241039bab83837b93a399760711b604082015260600190565b60208082526010908201526f73686f756c642062652062757965722160801b604082015260600190565b60208082526024908201527f72696768744f726465722e74616b657220766572696669636174696f6e2066616040820152631a5b195960e21b606082015260800190565b60208082526022908201527f6f72646572207369676e617475726520766572696669636174696f6e2065727260408201526137b960f11b606082015260800190565b60208082526012908201527132b9319b9918903b30b63ab29032b93937b960711b604082015260600190565b60208082526016908201527527b93232b91029b437bab632103132902b30b634b21760511b604082015260600190565b60208082526013908201527232b93198989a9a903b30b63ab29032b93937b960691b604082015260600190565b6020808252601290820152710c2e6e6cae8e640c8dedc4ee840dac2e8c6d60731b604082015260600190565b60208082526023908201527f6c6566744f726465722e74616b657220766572696669636174696f6e206661696040820152621b195960ea1b606082015260800190565b6020808252600b908201526a3737ba10309036b0b5b2b960a91b604082015260600190565b60006020825261142b60208301846124f1565b60006080825285516080830152602086015160c060a08401526128666101408401826124c5565b604088015160c085015260608801516001600160a01b031660e0850152608088015161010085015260a0880151848203607f19016101208601529091506128ad82826124c5565b925050506128be60208301866124b8565b6128cb60408301856124b8565b82606083015295945050505050565b60006060825284516060830152602085015160a060808401526129016101008401826124c5565b60408701516001600160a01b0390811660a0860152606088015160c08601526080880151858303605f190160e087015291925061293e83836124c5565b935080871660208601528086166040860152505050949350505050565b90815260200190565b60405181810167ffffffffffffffff8111828210171561298057fe5b604052919050565b600067ffffffffffffffff82111561299c57fe5b50601f01601f191660200190565b60005b838110156129c55781810151838201526020016129ad565b838111156113cb5750506000910152565b6001600160a01b0381168114610c7d57600080fdfe4f776e61626c653a206e6577206f776e657220697320746865207a65726f206164647265737345434453413a20696e76616c6964207369676e6174757265202773272076616c7565496e697469616c697a61626c653a20636f6e747261637420697320616c726561647920696e697469616c697a656445434453413a20696e76616c6964207369676e6174757265202776272076616c7565536166654d6174683a206d756c7469706c69636174696f6e206f766572666c6f774f776e61626c653a2063616c6c6572206973206e6f7420746865206f776e6572a2646970667358221220ac47bd23c8ed73e08404ebfbd9b0d9f377d4ea77415a31a1e6a65187700213ee64736f6c63430007060033",
  "immutableReferences": {},
  "source": "// SPDX-License-Identifier: MIT\n\npragma solidity 0.7.6;\npragma abicoder v2;\nimport \"./MarketCore.sol\";\nimport \"./TransferManager.sol\";\n\ncontract MetaSaltMarket is MarketCore {\n    function __MetaSaltMarket_init(\n        uint newProtocolFee,\n        address newDefaultFeeReceiver,\n        address transferERC721Proxy,\n        address transferERC1155Proxy        \n    ) external initializer {\n        __Context_init_unchained();\n        __Ownable_init_unchained();                \n        __OrderValidator_init_unchained();\n        __TransferManager_init_unchained(newProtocolFee, newDefaultFeeReceiver, transferERC721Proxy, transferERC1155Proxy);\n    }\n}",
  "sourcePath": "/Volumes/Data/MetaSalt/smart_contracts/market/contracts/MetaSaltMarket.sol",
  "compiler": {
    "name": "solc",
    "version": "0.7.6+commit.7338295f.Emscripten.clang"
  },
  "schemaVersion": "3.4.5",
  "updatedAt": "2022-07-17T17:20:30.115Z",
  "networkType": "ethereum",
  "devdoc": {
    "kind": "dev",
    "methods": {
      "owner()": {
        "details": "Returns the address of the current owner."
      },
      "paused()": {
        "details": "Returns true if the contract is paused, and false otherwise."
      },
      "renounceOwnership()": {
        "details": "Leaves the contract without owner. It will not be possible to call `onlyOwner` functions anymore. Can only be called by the current owner. NOTE: Renouncing ownership will leave the contract without an owner, thereby removing any functionality that is only available to the owner."
      },
      "transferOwnership(address)": {
        "details": "Transfers ownership of the contract to a new account (`newOwner`). Can only be called by the current owner."
      }
    },
    "version": 1
  },
  "userdoc": {
    "kind": "user",
    "methods": {},
    "version": 1
  }
}